{
  "address": "0xBcC6e1Ffd911CEeb1f8274839fdff8e758a0415e",
  "abi": [
    {
      "inputs": [
        {
          "internalType": "uint256",
          "name": "minDelay",
          "type": "uint256"
        },
        {
          "internalType": "address[]",
          "name": "proposers",
          "type": "address[]"
        },
        {
          "internalType": "address[]",
          "name": "executors",
          "type": "address[]"
        }
      ],
      "stateMutability": "nonpayable",
      "type": "constructor"
    },
    {
      "anonymous": false,
      "inputs": [
        {
          "indexed": true,
          "internalType": "bytes32",
          "name": "id",
          "type": "bytes32"
        },
        {
          "indexed": true,
          "internalType": "uint256",
          "name": "index",
          "type": "uint256"
        },
        {
          "indexed": false,
          "internalType": "address",
          "name": "target",
          "type": "address"
        },
        {
          "indexed": false,
          "internalType": "uint256",
          "name": "value",
          "type": "uint256"
        },
        {
          "indexed": false,
          "internalType": "bytes",
          "name": "data",
          "type": "bytes"
        }
      ],
      "name": "CallExecuted",
      "type": "event"
    },
    {
      "anonymous": false,
      "inputs": [
        {
          "indexed": true,
          "internalType": "bytes32",
          "name": "id",
          "type": "bytes32"
        },
        {
          "indexed": true,
          "internalType": "uint256",
          "name": "index",
          "type": "uint256"
        },
        {
          "indexed": false,
          "internalType": "address",
          "name": "target",
          "type": "address"
        },
        {
          "indexed": false,
          "internalType": "uint256",
          "name": "value",
          "type": "uint256"
        },
        {
          "indexed": false,
          "internalType": "bytes",
          "name": "data",
          "type": "bytes"
        },
        {
          "indexed": false,
          "internalType": "bytes32",
          "name": "predecessor",
          "type": "bytes32"
        },
        {
          "indexed": false,
          "internalType": "uint256",
          "name": "delay",
          "type": "uint256"
        }
      ],
      "name": "CallScheduled",
      "type": "event"
    },
    {
      "anonymous": false,
      "inputs": [
        {
          "indexed": true,
          "internalType": "bytes32",
          "name": "id",
          "type": "bytes32"
        }
      ],
      "name": "Cancelled",
      "type": "event"
    },
    {
      "anonymous": false,
      "inputs": [
        {
          "indexed": false,
          "internalType": "uint256",
          "name": "oldDuration",
          "type": "uint256"
        },
        {
          "indexed": false,
          "internalType": "uint256",
          "name": "newDuration",
          "type": "uint256"
        }
      ],
      "name": "MinDelayChange",
      "type": "event"
    },
    {
      "anonymous": false,
      "inputs": [
        {
          "indexed": true,
          "internalType": "bytes32",
          "name": "role",
          "type": "bytes32"
        },
        {
          "indexed": true,
          "internalType": "bytes32",
          "name": "previousAdminRole",
          "type": "bytes32"
        },
        {
          "indexed": true,
          "internalType": "bytes32",
          "name": "newAdminRole",
          "type": "bytes32"
        }
      ],
      "name": "RoleAdminChanged",
      "type": "event"
    },
    {
      "anonymous": false,
      "inputs": [
        {
          "indexed": true,
          "internalType": "bytes32",
          "name": "role",
          "type": "bytes32"
        },
        {
          "indexed": true,
          "internalType": "address",
          "name": "account",
          "type": "address"
        },
        {
          "indexed": true,
          "internalType": "address",
          "name": "sender",
          "type": "address"
        }
      ],
      "name": "RoleGranted",
      "type": "event"
    },
    {
      "anonymous": false,
      "inputs": [
        {
          "indexed": true,
          "internalType": "bytes32",
          "name": "role",
          "type": "bytes32"
        },
        {
          "indexed": true,
          "internalType": "address",
          "name": "account",
          "type": "address"
        },
        {
          "indexed": true,
          "internalType": "address",
          "name": "sender",
          "type": "address"
        }
      ],
      "name": "RoleRevoked",
      "type": "event"
    },
    {
      "inputs": [],
      "name": "DEFAULT_ADMIN_ROLE",
      "outputs": [
        {
          "internalType": "bytes32",
          "name": "",
          "type": "bytes32"
        }
      ],
      "stateMutability": "view",
      "type": "function"
    },
    {
      "inputs": [],
      "name": "EXECUTOR_ROLE",
      "outputs": [
        {
          "internalType": "bytes32",
          "name": "",
          "type": "bytes32"
        }
      ],
      "stateMutability": "view",
      "type": "function"
    },
    {
      "inputs": [],
      "name": "PROPOSER_ROLE",
      "outputs": [
        {
          "internalType": "bytes32",
          "name": "",
          "type": "bytes32"
        }
      ],
      "stateMutability": "view",
      "type": "function"
    },
    {
      "inputs": [],
      "name": "TIMELOCK_ADMIN_ROLE",
      "outputs": [
        {
          "internalType": "bytes32",
          "name": "",
          "type": "bytes32"
        }
      ],
      "stateMutability": "view",
      "type": "function"
    },
    {
      "inputs": [
        {
          "internalType": "bytes32",
          "name": "id",
          "type": "bytes32"
        }
      ],
      "name": "cancel",
      "outputs": [],
      "stateMutability": "nonpayable",
      "type": "function"
    },
    {
      "inputs": [
        {
          "internalType": "address",
          "name": "target",
          "type": "address"
        },
        {
          "internalType": "uint256",
          "name": "value",
          "type": "uint256"
        },
        {
          "internalType": "bytes",
          "name": "data",
          "type": "bytes"
        },
        {
          "internalType": "bytes32",
          "name": "predecessor",
          "type": "bytes32"
        },
        {
          "internalType": "bytes32",
          "name": "salt",
          "type": "bytes32"
        }
      ],
      "name": "execute",
      "outputs": [],
      "stateMutability": "payable",
      "type": "function"
    },
    {
      "inputs": [
        {
          "internalType": "address[]",
          "name": "targets",
          "type": "address[]"
        },
        {
          "internalType": "uint256[]",
          "name": "values",
          "type": "uint256[]"
        },
        {
          "internalType": "bytes[]",
          "name": "datas",
          "type": "bytes[]"
        },
        {
          "internalType": "bytes32",
          "name": "predecessor",
          "type": "bytes32"
        },
        {
          "internalType": "bytes32",
          "name": "salt",
          "type": "bytes32"
        }
      ],
      "name": "executeBatch",
      "outputs": [],
      "stateMutability": "payable",
      "type": "function"
    },
    {
      "inputs": [],
      "name": "getMinDelay",
      "outputs": [
        {
          "internalType": "uint256",
          "name": "duration",
          "type": "uint256"
        }
      ],
      "stateMutability": "view",
      "type": "function"
    },
    {
      "inputs": [
        {
          "internalType": "bytes32",
          "name": "role",
          "type": "bytes32"
        }
      ],
      "name": "getRoleAdmin",
      "outputs": [
        {
          "internalType": "bytes32",
          "name": "",
          "type": "bytes32"
        }
      ],
      "stateMutability": "view",
      "type": "function"
    },
    {
      "inputs": [
        {
          "internalType": "bytes32",
          "name": "id",
          "type": "bytes32"
        }
      ],
      "name": "getTimestamp",
      "outputs": [
        {
          "internalType": "uint256",
          "name": "timestamp",
          "type": "uint256"
        }
      ],
      "stateMutability": "view",
      "type": "function"
    },
    {
      "inputs": [
        {
          "internalType": "bytes32",
          "name": "role",
          "type": "bytes32"
        },
        {
          "internalType": "address",
          "name": "account",
          "type": "address"
        }
      ],
      "name": "grantRole",
      "outputs": [],
      "stateMutability": "nonpayable",
      "type": "function"
    },
    {
      "inputs": [
        {
          "internalType": "bytes32",
          "name": "role",
          "type": "bytes32"
        },
        {
          "internalType": "address",
          "name": "account",
          "type": "address"
        }
      ],
      "name": "hasRole",
      "outputs": [
        {
          "internalType": "bool",
          "name": "",
          "type": "bool"
        }
      ],
      "stateMutability": "view",
      "type": "function"
    },
    {
      "inputs": [
        {
          "internalType": "address",
          "name": "target",
          "type": "address"
        },
        {
          "internalType": "uint256",
          "name": "value",
          "type": "uint256"
        },
        {
          "internalType": "bytes",
          "name": "data",
          "type": "bytes"
        },
        {
          "internalType": "bytes32",
          "name": "predecessor",
          "type": "bytes32"
        },
        {
          "internalType": "bytes32",
          "name": "salt",
          "type": "bytes32"
        }
      ],
      "name": "hashOperation",
      "outputs": [
        {
          "internalType": "bytes32",
          "name": "hash",
          "type": "bytes32"
        }
      ],
      "stateMutability": "pure",
      "type": "function"
    },
    {
      "inputs": [
        {
          "internalType": "address[]",
          "name": "targets",
          "type": "address[]"
        },
        {
          "internalType": "uint256[]",
          "name": "values",
          "type": "uint256[]"
        },
        {
          "internalType": "bytes[]",
          "name": "datas",
          "type": "bytes[]"
        },
        {
          "internalType": "bytes32",
          "name": "predecessor",
          "type": "bytes32"
        },
        {
          "internalType": "bytes32",
          "name": "salt",
          "type": "bytes32"
        }
      ],
      "name": "hashOperationBatch",
      "outputs": [
        {
          "internalType": "bytes32",
          "name": "hash",
          "type": "bytes32"
        }
      ],
      "stateMutability": "pure",
      "type": "function"
    },
    {
      "inputs": [
        {
          "internalType": "bytes32",
          "name": "id",
          "type": "bytes32"
        }
      ],
      "name": "isOperation",
      "outputs": [
        {
          "internalType": "bool",
          "name": "pending",
          "type": "bool"
        }
      ],
      "stateMutability": "view",
      "type": "function"
    },
    {
      "inputs": [
        {
          "internalType": "bytes32",
          "name": "id",
          "type": "bytes32"
        }
      ],
      "name": "isOperationDone",
      "outputs": [
        {
          "internalType": "bool",
          "name": "done",
          "type": "bool"
        }
      ],
      "stateMutability": "view",
      "type": "function"
    },
    {
      "inputs": [
        {
          "internalType": "bytes32",
          "name": "id",
          "type": "bytes32"
        }
      ],
      "name": "isOperationPending",
      "outputs": [
        {
          "internalType": "bool",
          "name": "pending",
          "type": "bool"
        }
      ],
      "stateMutability": "view",
      "type": "function"
    },
    {
      "inputs": [
        {
          "internalType": "bytes32",
          "name": "id",
          "type": "bytes32"
        }
      ],
      "name": "isOperationReady",
      "outputs": [
        {
          "internalType": "bool",
          "name": "ready",
          "type": "bool"
        }
      ],
      "stateMutability": "view",
      "type": "function"
    },
    {
      "inputs": [
        {
          "internalType": "address",
          "name": "",
          "type": "address"
        },
        {
          "internalType": "address",
          "name": "",
          "type": "address"
        },
        {
          "internalType": "uint256[]",
          "name": "",
          "type": "uint256[]"
        },
        {
          "internalType": "uint256[]",
          "name": "",
          "type": "uint256[]"
        },
        {
          "internalType": "bytes",
          "name": "",
          "type": "bytes"
        }
      ],
      "name": "onERC1155BatchReceived",
      "outputs": [
        {
          "internalType": "bytes4",
          "name": "",
          "type": "bytes4"
        }
      ],
      "stateMutability": "nonpayable",
      "type": "function"
    },
    {
      "inputs": [
        {
          "internalType": "address",
          "name": "",
          "type": "address"
        },
        {
          "internalType": "address",
          "name": "",
          "type": "address"
        },
        {
          "internalType": "uint256",
          "name": "",
          "type": "uint256"
        },
        {
          "internalType": "uint256",
          "name": "",
          "type": "uint256"
        },
        {
          "internalType": "bytes",
          "name": "",
          "type": "bytes"
        }
      ],
      "name": "onERC1155Received",
      "outputs": [
        {
          "internalType": "bytes4",
          "name": "",
          "type": "bytes4"
        }
      ],
      "stateMutability": "nonpayable",
      "type": "function"
    },
    {
      "inputs": [
        {
          "internalType": "address",
          "name": "",
          "type": "address"
        },
        {
          "internalType": "address",
          "name": "",
          "type": "address"
        },
        {
          "internalType": "uint256",
          "name": "",
          "type": "uint256"
        },
        {
          "internalType": "bytes",
          "name": "",
          "type": "bytes"
        }
      ],
      "name": "onERC721Received",
      "outputs": [
        {
          "internalType": "bytes4",
          "name": "",
          "type": "bytes4"
        }
      ],
      "stateMutability": "nonpayable",
      "type": "function"
    },
    {
      "inputs": [
        {
          "internalType": "bytes32",
          "name": "role",
          "type": "bytes32"
        },
        {
          "internalType": "address",
          "name": "account",
          "type": "address"
        }
      ],
      "name": "renounceRole",
      "outputs": [],
      "stateMutability": "nonpayable",
      "type": "function"
    },
    {
      "inputs": [
        {
          "internalType": "bytes32",
          "name": "role",
          "type": "bytes32"
        },
        {
          "internalType": "address",
          "name": "account",
          "type": "address"
        }
      ],
      "name": "revokeRole",
      "outputs": [],
      "stateMutability": "nonpayable",
      "type": "function"
    },
    {
      "inputs": [
        {
          "internalType": "address",
          "name": "target",
          "type": "address"
        },
        {
          "internalType": "uint256",
          "name": "value",
          "type": "uint256"
        },
        {
          "internalType": "bytes",
          "name": "data",
          "type": "bytes"
        },
        {
          "internalType": "bytes32",
          "name": "predecessor",
          "type": "bytes32"
        },
        {
          "internalType": "bytes32",
          "name": "salt",
          "type": "bytes32"
        },
        {
          "internalType": "uint256",
          "name": "delay",
          "type": "uint256"
        }
      ],
      "name": "schedule",
      "outputs": [],
      "stateMutability": "nonpayable",
      "type": "function"
    },
    {
      "inputs": [
        {
          "internalType": "address[]",
          "name": "targets",
          "type": "address[]"
        },
        {
          "internalType": "uint256[]",
          "name": "values",
          "type": "uint256[]"
        },
        {
          "internalType": "bytes[]",
          "name": "datas",
          "type": "bytes[]"
        },
        {
          "internalType": "bytes32",
          "name": "predecessor",
          "type": "bytes32"
        },
        {
          "internalType": "bytes32",
          "name": "salt",
          "type": "bytes32"
        },
        {
          "internalType": "uint256",
          "name": "delay",
          "type": "uint256"
        }
      ],
      "name": "scheduleBatch",
      "outputs": [],
      "stateMutability": "nonpayable",
      "type": "function"
    },
    {
      "inputs": [
        {
          "internalType": "bytes4",
          "name": "interfaceId",
          "type": "bytes4"
        }
      ],
      "name": "supportsInterface",
      "outputs": [
        {
          "internalType": "bool",
          "name": "",
          "type": "bool"
        }
      ],
      "stateMutability": "view",
      "type": "function"
    },
    {
      "inputs": [
        {
          "internalType": "uint256",
          "name": "newDelay",
          "type": "uint256"
        }
      ],
      "name": "updateDelay",
      "outputs": [],
      "stateMutability": "nonpayable",
      "type": "function"
    },
    {
      "stateMutability": "payable",
      "type": "receive"
    }
  ],
  "transactionHash": "0xbe45224abd997a0804b60113531bb04e497f5b07d703ce4c2fa5f3e5bcb2b508",
  "args": [
    100,
    [],
    []
  ],
  "numDeployments": 1,
  "solcInputHash": "8b67df81f3699bf38bc37d0b35cb98e0",
  "bytecode": "0x60806040523480156200001157600080fd5b50604051620021c9380380620021c98339810160408190526200003491620003aa565b828282620000526000805160206200216983398151915280620001cf565b6200007c6000805160206200218983398151915260008051602062002169833981519152620001cf565b620000a6600080516020620021a983398151915260008051602062002169833981519152620001cf565b620000c160008051602062002169833981519152336200021a565b620000dc60008051602062002169833981519152306200021a565b60005b8251811015620001395762000126600080516020620021898339815191528483815181106200011257620001126200041e565b60200260200101516200021a60201b60201c565b620001318162000434565b9050620000df565b5060005b8151811015620001835762000170600080516020620021a98339815191528383815181106200011257620001126200041e565b6200017b8162000434565b90506200013d565b5060028390556040805160008152602081018590527f11c24f4ead16507c69ac467fbd5e4eed5fb5c699626d2cc6d66421df253886d5910160405180910390a15050505050506200045e565b600082815260208190526040808220600101805490849055905190918391839186917fbd79b86ffe0ab8e8776151514217cd7cacd52c909f66475c3af44e129f0b00ff9190a4505050565b6200022682826200022a565b5050565b6000828152602081815260408083206001600160a01b038516845290915290205460ff1662000226576000828152602081815260408083206001600160a01b03851684529091529020805460ff19166001179055620002863390565b6001600160a01b0316816001600160a01b0316837f2f8788117e7eff1d82e926ec794901d17c78024a50270940304540a733656f0d60405160405180910390a45050565b634e487b7160e01b600052604160045260246000fd5b80516001600160a01b0381168114620002f857600080fd5b919050565b600082601f8301126200030f57600080fd5b815160206001600160401b03808311156200032e576200032e620002ca565b8260051b604051601f19603f83011681018181108482111715620003565762000356620002ca565b6040529384528581018301938381019250878511156200037557600080fd5b83870191505b848210156200039f576200038f82620002e0565b835291830191908301906200037b565b979650505050505050565b600080600060608486031215620003c057600080fd5b835160208501519093506001600160401b0380821115620003e057600080fd5b620003ee87838801620002fd565b935060408601519150808211156200040557600080fd5b506200041486828701620002fd565b9150509250925092565b634e487b7160e01b600052603260045260246000fd5b60006000198214156200045757634e487b7160e01b600052601160045260246000fd5b5060010190565b611cfb806200046e6000396000f3fe6080604052600436106101a05760003560e01c806364d62353116100ec578063bc197c811161008a578063d547741f11610064578063d547741f14610521578063e38335e514610541578063f23a6e6114610554578063f27a0c921461058057600080fd5b8063bc197c81146104a8578063c4d252f5146104d4578063d45c4435146104f457600080fd5b80638f61f4f5116100c65780638f61f4f51461043157806391d1485414610453578063a217fddf14610473578063b1c5f4271461048857600080fd5b806364d62353146103d15780638065657f146103f15780638f2a0bb01461041157600080fd5b8063150b7a02116101595780632f2ff15d116101335780632f2ff15d1461035157806331d507501461037157806336568abe14610391578063584b153e146103b157600080fd5b8063150b7a02146102ac578063248a9ca3146102f05780632ab0f5291461032057600080fd5b806301d5062a146101ac57806301ffc9a7146101ce57806307bd0265146102035780630d3cf6fc14610245578063134008d31461027957806313bc9f201461028c57600080fd5b366101a757005b600080fd5b3480156101b857600080fd5b506101cc6101c73660046112d4565b610595565b005b3480156101da57600080fd5b506101ee6101e9366004611348565b610619565b60405190151581526020015b60405180910390f35b34801561020f57600080fd5b506102377fd8aa0f3194971a2a116679f7c2090f6939c8d4e01a2a8d7e41d55e5351469e6381565b6040519081526020016101fa565b34801561025157600080fd5b506102377f5f58e3a2316349923ce3780f8d587db2d72378aed66a8261c916544fa6846ca581565b6101cc610287366004611372565b61062a565b34801561029857600080fd5b506101ee6102a73660046113dd565b6106a2565b3480156102b857600080fd5b506102d76102c73660046114ab565b630a85bd0160e11b949350505050565b6040516001600160e01b031990911681526020016101fa565b3480156102fc57600080fd5b5061023761030b3660046113dd565b60009081526020819052604090206001015490565b34801561032c57600080fd5b506101ee61033b3660046113dd565b6000908152600160208190526040909120541490565b34801561035d57600080fd5b506101cc61036c366004611512565b6106c8565b34801561037d57600080fd5b506101ee61038c3660046113dd565b6106f3565b34801561039d57600080fd5b506101cc6103ac366004611512565b61070c565b3480156103bd57600080fd5b506101ee6103cc3660046113dd565b61078f565b3480156103dd57600080fd5b506101cc6103ec3660046113dd565b6107a5565b3480156103fd57600080fd5b5061023761040c366004611372565b610849565b34801561041d57600080fd5b506101cc61042c366004611582565b610888565b34801561043d57600080fd5b50610237600080516020611ca683398151915281565b34801561045f57600080fd5b506101ee61046e366004611512565b6109c9565b34801561047f57600080fd5b50610237600081565b34801561049457600080fd5b506102376104a3366004611633565b6109f2565b3480156104b457600080fd5b506102d76104c336600461175a565b63bc197c8160e01b95945050505050565b3480156104e057600080fd5b506101cc6104ef3660046113dd565b610a37565b34801561050057600080fd5b5061023761050f3660046113dd565b60009081526001602052604090205490565b34801561052d57600080fd5b506101cc61053c366004611512565b610afb565b6101cc61054f366004611633565b610b21565b34801561056057600080fd5b506102d761056f366004611803565b63f23a6e6160e01b95945050505050565b34801561058c57600080fd5b50600254610237565b600080516020611ca68339815191526105ae8133610c56565b60006105be898989898989610849565b90506105ca8184610cba565b6000817f4cf4410cc57040e44862ef0f45f3dd5a5e02db8eb8add648d4b0e236f1d07dca8b8b8b8b8b8a60405161060696959493929190611890565b60405180910390a3505050505050505050565b600061062482610da9565b92915050565b7fd8aa0f3194971a2a116679f7c2090f6939c8d4e01a2a8d7e41d55e5351469e636106568160006109c9565b610664576106648133610c56565b6000610674888888888888610849565b90506106808185610dce565b61068f8160008a8a8a8a610e6a565b61069881610f7e565b5050505050505050565b6000818152600160205260408120546001811180156106c15750428111155b9392505050565b6000828152602081905260409020600101546106e48133610c56565b6106ee8383610fb7565b505050565b60008181526001602052604081205481905b1192915050565b6001600160a01b03811633146107815760405162461bcd60e51b815260206004820152602f60248201527f416363657373436f6e74726f6c3a2063616e206f6e6c792072656e6f756e636560448201526e103937b632b9903337b91039b2b63360891b60648201526084015b60405180910390fd5b61078b828261103b565b5050565b6000818152600160208190526040822054610705565b3330146108085760405162461bcd60e51b815260206004820152602b60248201527f54696d656c6f636b436f6e74726f6c6c65723a2063616c6c6572206d7573742060448201526a62652074696d656c6f636b60a81b6064820152608401610778565b60025460408051918252602082018390527f11c24f4ead16507c69ac467fbd5e4eed5fb5c699626d2cc6d66421df253886d5910160405180910390a1600255565b600086868686868660405160200161086696959493929190611890565b6040516020818303038152906040528051906020012090509695505050505050565b600080516020611ca68339815191526108a18133610c56565b8887146108c05760405162461bcd60e51b8152600401610778906118cd565b8885146108df5760405162461bcd60e51b8152600401610778906118cd565b60006108f18b8b8b8b8b8b8b8b6109f2565b90506108fd8184610cba565b60005b8a8110156109bb5780827f4cf4410cc57040e44862ef0f45f3dd5a5e02db8eb8add648d4b0e236f1d07dca8e8e8581811061093d5761093d611910565b90506020020160208101906109529190611926565b8d8d8681811061096457610964611910565b905060200201358c8c8781811061097d5761097d611910565b905060200281019061098f9190611941565b8c8b6040516109a396959493929190611890565b60405180910390a36109b48161199d565b9050610900565b505050505050505050505050565b6000918252602082815260408084206001600160a01b0393909316845291905290205460ff1690565b60008888888888888888604051602001610a13989796959493929190611a48565b60405160208183030381529060405280519060200120905098975050505050505050565b600080516020611ca6833981519152610a508133610c56565b610a598261078f565b610abf5760405162461bcd60e51b815260206004820152603160248201527f54696d656c6f636b436f6e74726f6c6c65723a206f7065726174696f6e2063616044820152701b9b9bdd0818994818d85b98d95b1b1959607a1b6064820152608401610778565b6000828152600160205260408082208290555183917fbaa1eb22f2a492ba1a5fea61b8df4d27c6c8b5f3971e63bb58fa14ff72eedb7091a25050565b600082815260208190526040902060010154610b178133610c56565b6106ee838361103b565b7fd8aa0f3194971a2a116679f7c2090f6939c8d4e01a2a8d7e41d55e5351469e63610b4d8160006109c9565b610b5b57610b5b8133610c56565b878614610b7a5760405162461bcd60e51b8152600401610778906118cd565b878414610b995760405162461bcd60e51b8152600401610778906118cd565b6000610bab8a8a8a8a8a8a8a8a6109f2565b9050610bb78185610dce565b60005b89811015610c4057610c3082828d8d85818110610bd957610bd9611910565b9050602002016020810190610bee9190611926565b8c8c86818110610c0057610c00611910565b905060200201358b8b87818110610c1957610c19611910565b9050602002810190610c2b9190611941565b610e6a565b610c398161199d565b9050610bba565b50610c4a81610f7e565b50505050505050505050565b610c6082826109c9565b61078b57610c78816001600160a01b031660146110a0565b610c838360206110a0565b604051602001610c94929190611b23565b60408051601f198184030181529082905262461bcd60e51b825261077891600401611b98565b610cc3826106f3565b15610d285760405162461bcd60e51b815260206004820152602f60248201527f54696d656c6f636b436f6e74726f6c6c65723a206f7065726174696f6e20616c60448201526e1c9958591e481cd8da19591d5b1959608a1b6064820152608401610778565b600254811015610d895760405162461bcd60e51b815260206004820152602660248201527f54696d656c6f636b436f6e74726f6c6c65723a20696e73756666696369656e746044820152652064656c617960d01b6064820152608401610778565b610d938142611bcb565b6000928352600160205260409092209190915550565b60006001600160e01b03198216630271189760e51b148061062457506106248261123b565b610dd7826106a2565b610df35760405162461bcd60e51b815260040161077890611be3565b801580610e0f5750600081815260016020819052604090912054145b61078b5760405162461bcd60e51b815260206004820152602660248201527f54696d656c6f636b436f6e74726f6c6c65723a206d697373696e6720646570656044820152656e64656e637960d01b6064820152608401610778565b6000846001600160a01b0316848484604051610e87929190611c2d565b60006040518083038185875af1925050503d8060008114610ec4576040519150601f19603f3d011682016040523d82523d6000602084013e610ec9565b606091505b5050905080610f365760405162461bcd60e51b815260206004820152603360248201527f54696d656c6f636b436f6e74726f6c6c65723a20756e6465726c79696e6720746044820152721c985b9cd858dd1a5bdb881c995d995c9d1959606a1b6064820152608401610778565b85877fc2617efa69bab66782fa219543714338489c4e9e178271560a91b82c3f612b5887878787604051610f6d9493929190611c3d565b60405180910390a350505050505050565b610f87816106a2565b610fa35760405162461bcd60e51b815260040161077890611be3565b600090815260016020819052604090912055565b610fc182826109c9565b61078b576000828152602081815260408083206001600160a01b03851684529091529020805460ff19166001179055610ff73390565b6001600160a01b0316816001600160a01b0316837f2f8788117e7eff1d82e926ec794901d17c78024a50270940304540a733656f0d60405160405180910390a45050565b61104582826109c9565b1561078b576000828152602081815260408083206001600160a01b0385168085529252808320805460ff1916905551339285917ff6391f5c32d9c69d2a47ea670b442974b53935d1edc7fd64eb21e047a839171b9190a45050565b606060006110af836002611c6f565b6110ba906002611bcb565b6001600160401b038111156110d1576110d16113f6565b6040519080825280601f01601f1916602001820160405280156110fb576020820181803683370190505b509050600360fc1b8160008151811061111657611116611910565b60200101906001600160f81b031916908160001a905350600f60fb1b8160018151811061114557611145611910565b60200101906001600160f81b031916908160001a9053506000611169846002611c6f565b611174906001611bcb565b90505b60018111156111ec576f181899199a1a9b1b9c1cb0b131b232b360811b85600f16601081106111a8576111a8611910565b1a60f81b8282815181106111be576111be611910565b60200101906001600160f81b031916908160001a90535060049490941c936111e581611c8e565b9050611177565b5083156106c15760405162461bcd60e51b815260206004820181905260248201527f537472696e67733a20686578206c656e67746820696e73756666696369656e746044820152606401610778565b60006001600160e01b03198216637965db0b60e01b148061062457506301ffc9a760e01b6001600160e01b0319831614610624565b80356001600160a01b038116811461128757600080fd5b919050565b60008083601f84011261129e57600080fd5b5081356001600160401b038111156112b557600080fd5b6020830191508360208285010111156112cd57600080fd5b9250929050565b600080600080600080600060c0888a0312156112ef57600080fd5b6112f888611270565b96506020880135955060408801356001600160401b0381111561131a57600080fd5b6113268a828b0161128c565b989b979a50986060810135976080820135975060a09091013595509350505050565b60006020828403121561135a57600080fd5b81356001600160e01b0319811681146106c157600080fd5b60008060008060008060a0878903121561138b57600080fd5b61139487611270565b95506020870135945060408701356001600160401b038111156113b657600080fd5b6113c289828a0161128c565b979a9699509760608101359660809091013595509350505050565b6000602082840312156113ef57600080fd5b5035919050565b634e487b7160e01b600052604160045260246000fd5b604051601f8201601f191681016001600160401b0381118282101715611434576114346113f6565b604052919050565b600082601f83011261144d57600080fd5b81356001600160401b03811115611466576114666113f6565b611479601f8201601f191660200161140c565b81815284602083860101111561148e57600080fd5b816020850160208301376000918101602001919091529392505050565b600080600080608085870312156114c157600080fd5b6114ca85611270565b93506114d860208601611270565b92506040850135915060608501356001600160401b038111156114fa57600080fd5b6115068782880161143c565b91505092959194509250565b6000806040838503121561152557600080fd5b8235915061153560208401611270565b90509250929050565b60008083601f84011261155057600080fd5b5081356001600160401b0381111561156757600080fd5b6020830191508360208260051b85010111156112cd57600080fd5b600080600080600080600080600060c08a8c0312156115a057600080fd5b89356001600160401b03808211156115b757600080fd5b6115c38d838e0161153e565b909b50995060208c01359150808211156115dc57600080fd5b6115e88d838e0161153e565b909950975060408c013591508082111561160157600080fd5b5061160e8c828d0161153e565b9a9d999c50979a969997986060880135976080810135975060a0013595509350505050565b60008060008060008060008060a0898b03121561164f57600080fd5b88356001600160401b038082111561166657600080fd5b6116728c838d0161153e565b909a50985060208b013591508082111561168b57600080fd5b6116978c838d0161153e565b909850965060408b01359150808211156116b057600080fd5b506116bd8b828c0161153e565b999c989b509699959896976060870135966080013595509350505050565b600082601f8301126116ec57600080fd5b813560206001600160401b03821115611707576117076113f6565b8160051b61171682820161140c565b928352848101820192828101908785111561173057600080fd5b83870192505b8483101561174f57823582529183019190830190611736565b979650505050505050565b600080600080600060a0868803121561177257600080fd5b61177b86611270565b945061178960208701611270565b935060408601356001600160401b03808211156117a557600080fd5b6117b189838a016116db565b945060608801359150808211156117c757600080fd5b6117d389838a016116db565b935060808801359150808211156117e957600080fd5b506117f68882890161143c565b9150509295509295909350565b600080600080600060a0868803121561181b57600080fd5b61182486611270565b945061183260208701611270565b9350604086013592506060860135915060808601356001600160401b0381111561185b57600080fd5b6117f68882890161143c565b81835281816020850137506000828201602090810191909152601f909101601f19169091010190565b60018060a01b038716815285602082015260a0604082015260006118b860a083018688611867565b60608301949094525060800152949350505050565b60208082526023908201527f54696d656c6f636b436f6e74726f6c6c65723a206c656e677468206d69736d616040820152620e8c6d60eb1b606082015260800190565b634e487b7160e01b600052603260045260246000fd5b60006020828403121561193857600080fd5b6106c182611270565b6000808335601e1984360301811261195857600080fd5b8301803591506001600160401b0382111561197257600080fd5b6020019150368190038213156112cd57600080fd5b634e487b7160e01b600052601160045260246000fd5b60006000198214156119b1576119b1611987565b5060010190565b81835260006020808501808196508560051b810191508460005b87811015611a3b5782840389528135601e198836030181126119f357600080fd5b870180356001600160401b03811115611a0b57600080fd5b803603891315611a1a57600080fd5b611a278682898501611867565b9a87019a95505050908401906001016119d2565b5091979650505050505050565b60a0808252810188905260008960c08301825b8b811015611a89576001600160a01b03611a7484611270565b16825260209283019290910190600101611a5b565b5083810360208501528881526001600160fb1b03891115611aa957600080fd5b8860051b9150818a602083013781810191505060208101600081526020848303016040850152611ada81888a6119b8565b6060850196909652505050608001529695505050505050565b60005b83811015611b0e578181015183820152602001611af6565b83811115611b1d576000848401525b50505050565b7f416363657373436f6e74726f6c3a206163636f756e7420000000000000000000815260008351611b5b816017850160208801611af3565b7001034b99036b4b9b9b4b733903937b6329607d1b6017918401918201528351611b8c816028840160208801611af3565b01602801949350505050565b6020815260008251806020840152611bb7816040850160208701611af3565b601f01601f19169190910160400192915050565b60008219821115611bde57611bde611987565b500190565b6020808252602a908201527f54696d656c6f636b436f6e74726f6c6c65723a206f7065726174696f6e206973604082015269206e6f7420726561647960b01b606082015260800190565b8183823760009101908152919050565b60018060a01b0385168152836020820152606060408201526000611c65606083018486611867565b9695505050505050565b6000816000190483118215151615611c8957611c89611987565b500290565b600081611c9d57611c9d611987565b50600019019056feb09aa5aeb3702cfd50b6b62bc4532604938f21248a27a1d5ca736082b6819cc1a2646970667358221220bc82e38e8e8840b2b6e96154b94382d1f0d5edb9dd0af6893cc316ad5492515f64736f6c634300080900335f58e3a2316349923ce3780f8d587db2d72378aed66a8261c916544fa6846ca5b09aa5aeb3702cfd50b6b62bc4532604938f21248a27a1d5ca736082b6819cc1d8aa0f3194971a2a116679f7c2090f6939c8d4e01a2a8d7e41d55e5351469e63",
  "devdoc": {
    "kind": "dev",
    "methods": {
      "cancel(bytes32)": {
        "details": "Cancel an operation. Requirements: - the caller must have the 'proposer' role."
      },
      "execute(address,uint256,bytes,bytes32,bytes32)": {
        "details": "Execute an (ready) operation containing a single transaction. Emits a {CallExecuted} event. Requirements: - the caller must have the 'executor' role."
      },
      "executeBatch(address[],uint256[],bytes[],bytes32,bytes32)": {
        "details": "Execute an (ready) operation containing a batch of transactions. Emits one {CallExecuted} event per transaction in the batch. Requirements: - the caller must have the 'executor' role."
      },
      "getMinDelay()": {
        "details": "Returns the minimum delay for an operation to become valid. This value can be changed by executing an operation that calls `updateDelay`."
      },
      "getRoleAdmin(bytes32)": {
        "details": "Returns the admin role that controls `role`. See {grantRole} and {revokeRole}. To change a role's admin, use {_setRoleAdmin}."
      },
      "getTimestamp(bytes32)": {
        "details": "Returns the timestamp at with an operation becomes ready (0 for unset operations, 1 for done operations)."
      },
      "grantRole(bytes32,address)": {
        "details": "Grants `role` to `account`. If `account` had not been already granted `role`, emits a {RoleGranted} event. Requirements: - the caller must have ``role``'s admin role."
      },
      "hasRole(bytes32,address)": {
        "details": "Returns `true` if `account` has been granted `role`."
      },
      "hashOperation(address,uint256,bytes,bytes32,bytes32)": {
        "details": "Returns the identifier of an operation containing a single transaction."
      },
      "hashOperationBatch(address[],uint256[],bytes[],bytes32,bytes32)": {
        "details": "Returns the identifier of an operation containing a batch of transactions."
      },
      "isOperation(bytes32)": {
        "details": "Returns whether an id correspond to a registered operation. This includes both Pending, Ready and Done operations."
      },
      "isOperationDone(bytes32)": {
        "details": "Returns whether an operation is done or not."
      },
      "isOperationPending(bytes32)": {
        "details": "Returns whether an operation is pending or not."
      },
      "isOperationReady(bytes32)": {
        "details": "Returns whether an operation is ready or not."
      },
      "onERC721Received(address,address,uint256,bytes)": {
        "details": "See {IERC721Receiver-onERC721Received}. Always returns `IERC721Receiver.onERC721Received.selector`."
      },
      "renounceRole(bytes32,address)": {
        "details": "Revokes `role` from the calling account. Roles are often managed via {grantRole} and {revokeRole}: this function's purpose is to provide a mechanism for accounts to lose their privileges if they are compromised (such as when a trusted device is misplaced). If the calling account had been revoked `role`, emits a {RoleRevoked} event. Requirements: - the caller must be `account`."
      },
      "revokeRole(bytes32,address)": {
        "details": "Revokes `role` from `account`. If `account` had been granted `role`, emits a {RoleRevoked} event. Requirements: - the caller must have ``role``'s admin role."
      },
      "schedule(address,uint256,bytes,bytes32,bytes32,uint256)": {
        "details": "Schedule an operation containing a single transaction. Emits a {CallScheduled} event. Requirements: - the caller must have the 'proposer' role."
      },
      "scheduleBatch(address[],uint256[],bytes[],bytes32,bytes32,uint256)": {
        "details": "Schedule an operation containing a batch of transactions. Emits one {CallScheduled} event per transaction in the batch. Requirements: - the caller must have the 'proposer' role."
      },
      "updateDelay(uint256)": {
        "details": "Changes the minimum timelock duration for future operations. Emits a {MinDelayChange} event. Requirements: - the caller must be the timelock itself. This can only be achieved by scheduling and later executing an operation where the timelock is the target and the data is the ABI-encoded call to this function."
      }
    },
    "version": 1
  },
  "userdoc": {
    "kind": "user",
    "methods": {},
    "version": 1
  },
  "storageLayout": {
    "storage": [
      {
        "astId": 24,
        "contract": "contracts/governance/Timelock.sol:StabilityDAO",
        "label": "_roles",
        "offset": 0,
        "slot": "0",
        "type": "t_mapping(t_bytes32,t_struct(RoleData)19_storage)"
      },
      {
        "astId": 412,
        "contract": "contracts/governance/Timelock.sol:StabilityDAO",
        "label": "_timestamps",
        "offset": 0,
        "slot": "1",
        "type": "t_mapping(t_bytes32,t_uint256)"
      },
      {
        "astId": 414,
        "contract": "contracts/governance/Timelock.sol:StabilityDAO",
        "label": "_minDelay",
        "offset": 0,
        "slot": "2",
        "type": "t_uint256"
      }
    ],
    "types": {
      "t_address": {
        "encoding": "inplace",
        "label": "address",
        "numberOfBytes": "20"
      },
      "t_bool": {
        "encoding": "inplace",
        "label": "bool",
        "numberOfBytes": "1"
      },
      "t_bytes32": {
        "encoding": "inplace",
        "label": "bytes32",
        "numberOfBytes": "32"
      },
      "t_mapping(t_address,t_bool)": {
        "encoding": "mapping",
        "key": "t_address",
        "label": "mapping(address => bool)",
        "numberOfBytes": "32",
        "value": "t_bool"
      },
      "t_mapping(t_bytes32,t_struct(RoleData)19_storage)": {
        "encoding": "mapping",
        "key": "t_bytes32",
        "label": "mapping(bytes32 => struct AccessControl.RoleData)",
        "numberOfBytes": "32",
        "value": "t_struct(RoleData)19_storage"
      },
      "t_mapping(t_bytes32,t_uint256)": {
        "encoding": "mapping",
        "key": "t_bytes32",
        "label": "mapping(bytes32 => uint256)",
        "numberOfBytes": "32",
        "value": "t_uint256"
      },
      "t_struct(RoleData)19_storage": {
        "encoding": "inplace",
        "label": "struct AccessControl.RoleData",
        "members": [
          {
            "astId": 16,
            "contract": "contracts/governance/Timelock.sol:StabilityDAO",
            "label": "members",
            "offset": 0,
            "slot": "0",
            "type": "t_mapping(t_address,t_bool)"
          },
          {
            "astId": 18,
            "contract": "contracts/governance/Timelock.sol:StabilityDAO",
            "label": "adminRole",
            "offset": 0,
            "slot": "1",
            "type": "t_bytes32"
          }
        ],
        "numberOfBytes": "64"
      },
      "t_uint256": {
        "encoding": "inplace",
        "label": "uint256",
        "numberOfBytes": "32"
      }
    }
  }
}