{
  "address": "0x71eD65C3705d52f3f2e8153b192a82d3D2c754ea",
  "abi": [
    {
      "inputs": [],
      "stateMutability": "nonpayable",
      "type": "constructor"
    },
    {
      "anonymous": false,
      "inputs": [
        {
          "indexed": false,
          "internalType": "address",
          "name": "oldAdmin",
          "type": "address"
        },
        {
          "indexed": false,
          "internalType": "address",
          "name": "newAdmin",
          "type": "address"
        }
      ],
      "name": "AdminChanged",
      "type": "event"
    },
    {
      "anonymous": false,
      "inputs": [
        {
          "indexed": false,
          "internalType": "address",
          "name": "token",
          "type": "address"
        },
        {
          "indexed": false,
          "internalType": "address",
          "name": "sender",
          "type": "address"
        },
        {
          "indexed": false,
          "internalType": "address",
          "name": "recipient",
          "type": "address"
        },
        {
          "indexed": false,
          "internalType": "uint256",
          "name": "amount",
          "type": "uint256"
        },
        {
          "indexed": false,
          "internalType": "uint256",
          "name": "date",
          "type": "uint256"
        },
        {
          "indexed": false,
          "internalType": "uint256",
          "name": "nonce",
          "type": "uint256"
        },
        {
          "indexed": true,
          "internalType": "bool",
          "name": "lock",
          "type": "bool"
        }
      ],
      "name": "Locked",
      "type": "event"
    },
    {
      "anonymous": false,
      "inputs": [
        {
          "indexed": false,
          "internalType": "string",
          "name": "name",
          "type": "string"
        },
        {
          "indexed": false,
          "internalType": "address",
          "name": "source",
          "type": "address"
        },
        {
          "indexed": false,
          "internalType": "address",
          "name": "destination",
          "type": "address"
        }
      ],
      "name": "NewTokenAdded",
      "type": "event"
    },
    {
      "anonymous": false,
      "inputs": [
        {
          "indexed": false,
          "internalType": "address",
          "name": "token",
          "type": "address"
        },
        {
          "indexed": false,
          "internalType": "address",
          "name": "sender",
          "type": "address"
        },
        {
          "indexed": false,
          "internalType": "address",
          "name": "recipient",
          "type": "address"
        },
        {
          "indexed": false,
          "internalType": "uint256",
          "name": "amount",
          "type": "uint256"
        },
        {
          "indexed": false,
          "internalType": "uint256",
          "name": "date",
          "type": "uint256"
        },
        {
          "indexed": false,
          "internalType": "uint256",
          "name": "nonce",
          "type": "uint256"
        },
        {
          "indexed": true,
          "internalType": "bool",
          "name": "burnt",
          "type": "bool"
        }
      ],
      "name": "TokenBurn",
      "type": "event"
    },
    {
      "anonymous": false,
      "inputs": [
        {
          "indexed": false,
          "internalType": "address",
          "name": "token",
          "type": "address"
        },
        {
          "indexed": false,
          "internalType": "address",
          "name": "sender",
          "type": "address"
        },
        {
          "indexed": false,
          "internalType": "address",
          "name": "recipient",
          "type": "address"
        },
        {
          "indexed": false,
          "internalType": "uint256",
          "name": "amount",
          "type": "uint256"
        },
        {
          "indexed": false,
          "internalType": "uint256",
          "name": "date",
          "type": "uint256"
        },
        {
          "indexed": false,
          "internalType": "uint256",
          "name": "nonce",
          "type": "uint256"
        },
        {
          "indexed": true,
          "internalType": "bool",
          "name": "minted",
          "type": "bool"
        }
      ],
      "name": "TokenMinted",
      "type": "event"
    },
    {
      "anonymous": false,
      "inputs": [
        {
          "indexed": false,
          "internalType": "address",
          "name": "token",
          "type": "address"
        },
        {
          "indexed": false,
          "internalType": "address",
          "name": "sender",
          "type": "address"
        },
        {
          "indexed": false,
          "internalType": "address",
          "name": "recipient",
          "type": "address"
        },
        {
          "indexed": false,
          "internalType": "uint256",
          "name": "amount",
          "type": "uint256"
        },
        {
          "indexed": false,
          "internalType": "uint256",
          "name": "date",
          "type": "uint256"
        },
        {
          "indexed": false,
          "internalType": "uint256",
          "name": "nonce",
          "type": "uint256"
        },
        {
          "indexed": true,
          "internalType": "bool",
          "name": "unlock",
          "type": "bool"
        }
      ],
      "name": "Unlocked",
      "type": "event"
    },
    {
      "inputs": [
        {
          "internalType": "address",
          "name": "chainA",
          "type": "address"
        },
        {
          "components": [
            {
              "internalType": "string",
              "name": "name",
              "type": "string"
            },
            {
              "internalType": "string",
              "name": "symbol",
              "type": "string"
            },
            {
              "internalType": "uint8",
              "name": "decimals",
              "type": "uint8"
            },
            {
              "internalType": "address",
              "name": "tokenAddr",
              "type": "address"
            },
            {
              "internalType": "uint256",
              "name": "price",
              "type": "uint256"
            }
          ],
          "internalType": "struct Bridge.TokenInfo",
          "name": "extraArgs",
          "type": "tuple"
        }
      ],
      "name": "addToken",
      "outputs": [],
      "stateMutability": "nonpayable",
      "type": "function"
    },
    {
      "inputs": [],
      "name": "admin",
      "outputs": [
        {
          "internalType": "address",
          "name": "",
          "type": "address"
        }
      ],
      "stateMutability": "view",
      "type": "function"
    },
    {
      "inputs": [
        {
          "internalType": "address",
          "name": "tokenIn",
          "type": "address"
        },
        {
          "internalType": "address",
          "name": "recipient",
          "type": "address"
        },
        {
          "internalType": "uint256",
          "name": "amount",
          "type": "uint256"
        }
      ],
      "name": "burn",
      "outputs": [],
      "stateMutability": "nonpayable",
      "type": "function"
    },
    {
      "inputs": [
        {
          "internalType": "address",
          "name": "newAdmin",
          "type": "address"
        }
      ],
      "name": "changeAdmin",
      "outputs": [],
      "stateMutability": "nonpayable",
      "type": "function"
    },
    {
      "inputs": [],
      "name": "fee",
      "outputs": [
        {
          "internalType": "uint256",
          "name": "",
          "type": "uint256"
        }
      ],
      "stateMutability": "view",
      "type": "function"
    },
    {
      "inputs": [
        {
          "internalType": "address",
          "name": "recipient",
          "type": "address"
        }
      ],
      "name": "lockETH",
      "outputs": [],
      "stateMutability": "payable",
      "type": "function"
    },
    {
      "inputs": [
        {
          "internalType": "address",
          "name": "tokenIn",
          "type": "address"
        },
        {
          "internalType": "address",
          "name": "recipient",
          "type": "address"
        },
        {
          "internalType": "uint256",
          "name": "amount",
          "type": "uint256"
        }
      ],
      "name": "lockToken",
      "outputs": [],
      "stateMutability": "nonpayable",
      "type": "function"
    },
    {
      "inputs": [
        {
          "internalType": "address",
          "name": "tokenOut",
          "type": "address"
        },
        {
          "internalType": "address",
          "name": "sender",
          "type": "address"
        },
        {
          "internalType": "address",
          "name": "recipient",
          "type": "address"
        },
        {
          "internalType": "uint256",
          "name": "amount",
          "type": "uint256"
        }
      ],
      "name": "mint",
      "outputs": [],
      "stateMutability": "nonpayable",
      "type": "function"
    },
    {
      "inputs": [
        {
          "internalType": "uint256",
          "name": "value",
          "type": "uint256"
        }
      ],
      "name": "setFee",
      "outputs": [],
      "stateMutability": "nonpayable",
      "type": "function"
    },
    {
      "inputs": [
        {
          "internalType": "address",
          "name": "",
          "type": "address"
        }
      ],
      "name": "tokenInfo",
      "outputs": [
        {
          "internalType": "string",
          "name": "name",
          "type": "string"
        },
        {
          "internalType": "string",
          "name": "symbol",
          "type": "string"
        },
        {
          "internalType": "uint8",
          "name": "decimals",
          "type": "uint8"
        },
        {
          "internalType": "address",
          "name": "tokenAddr",
          "type": "address"
        },
        {
          "internalType": "uint256",
          "name": "price",
          "type": "uint256"
        }
      ],
      "stateMutability": "view",
      "type": "function"
    },
    {
      "inputs": [
        {
          "internalType": "address",
          "name": "sender",
          "type": "address"
        },
        {
          "internalType": "address",
          "name": "recipient",
          "type": "address"
        },
        {
          "internalType": "uint256",
          "name": "amount",
          "type": "uint256"
        }
      ],
      "name": "unlockETH",
      "outputs": [],
      "stateMutability": "nonpayable",
      "type": "function"
    },
    {
      "inputs": [
        {
          "internalType": "address",
          "name": "tokenOut",
          "type": "address"
        },
        {
          "internalType": "address",
          "name": "sender",
          "type": "address"
        },
        {
          "internalType": "address",
          "name": "recipient",
          "type": "address"
        },
        {
          "internalType": "uint256",
          "name": "amount",
          "type": "uint256"
        }
      ],
      "name": "unlockToken",
      "outputs": [],
      "stateMutability": "nonpayable",
      "type": "function"
    },
    {
      "inputs": [
        {
          "internalType": "address",
          "name": "token",
          "type": "address"
        },
        {
          "internalType": "address",
          "name": "to",
          "type": "address"
        }
      ],
      "name": "withdrawTaxERC20",
      "outputs": [],
      "stateMutability": "nonpayable",
      "type": "function"
    },
    {
      "inputs": [
        {
          "internalType": "address",
          "name": "to",
          "type": "address"
        }
      ],
      "name": "withdrawTaxETH",
      "outputs": [],
      "stateMutability": "nonpayable",
      "type": "function"
    }
  ],
  "transactionHash": "0xdb68a2458aedc1b7f32e5604139045fc0e3995891f4374a05a8e2fe26afaabaf",
  "args": [],
  "numDeployments": 1,
  "solcInputHash": "ab14f2776b9e979f11e042e07fcbf177",
  "bytecode": "0x6080604052600860055534801561001557600080fd5b50600480546001600160a01b0319163317905561221d806100376000396000f3fe6080604052600436106100dd5760003560e01c8063940fd3431161007f578063ddca3f4311610059578063ddca3f4314610217578063f5dab71114610240578063f6b911bc14610271578063f851a4401461029157600080fd5b8063940fd343146101b757806396de82b1146101d7578063b0f9cd38146101f757600080fd5b806381513892116100bb578063815138921461014457806384a73e53146101645780638f283970146101775780638fcf69591461019757600080fd5b80631d4347a8146100e25780633fdab6ac1461010457806369fe0e2d14610124575b600080fd5b3480156100ee57600080fd5b506101026100fd366004611b33565b6102c9565b005b34801561011057600080fd5b5061010261011f366004611b6f565b610658565b34801561013057600080fd5b5061010261013f366004611b8a565b6107ec565b34801561015057600080fd5b5061010261015f366004611ba3565b61081b565b610102610172366004611b6f565b6109de565b34801561018357600080fd5b50610102610192366004611b6f565b610c53565b3480156101a357600080fd5b506101026101b2366004611b33565b610d44565b3480156101c357600080fd5b506101026101d2366004611bee565b610f2c565b3480156101e357600080fd5b506101026101f2366004611ced565b610fee565b34801561020357600080fd5b50610102610212366004611ba3565b6110e2565b34801561022357600080fd5b5061022d60055481565b6040519081526020015b60405180910390f35b34801561024c57600080fd5b5061026061025b366004611b6f565b611248565b604051610237959493929190611e20565b34801561027d57600080fd5b5061010261028c366004611b33565b611394565b34801561029d57600080fd5b506004546102b1906001600160a01b031681565b6040516001600160a01b039091168152602001610237565b6001600160a01b03808416600090815260208190526040902090831661030a5760405162461bcd60e51b815260040161030190611e6f565b60405180910390fd5b6000821161035a5760405162461bcd60e51b815260206004820152601860248201527f6272696467652f7a65726f20746f6b656e206c6f636b656400000000000000006044820152606401610301565b600281015461010090046001600160a01b03166103a75760405162461bcd60e51b815260206004820152600b60248201526a666f72626964206c6f636b60a81b6044820152606401610301565b33600090815260016020819052604082208054919290916103c9908490611ec7565b909155505033600090815260016020908152604080832054600283528184208185529092529091205460ff16156104125760405162461bcd60e51b815260040161030190611edf565b336000818152600260209081526040808320858452909152808220805460ff19166001179055516370a0823160e01b81526004810192909252906001600160a01b038716906370a082319060240160206040518083038186803b15801561047857600080fd5b505afa15801561048c573d6000803e3d6000fd5b505050506040513d601f19601f820116820180604052508101906104b09190611f16565b90506104c76001600160a01b038716333087611761565b6040516370a0823160e01b81523360048201526000906001600160a01b038816906370a082319060240160206040518083038186803b15801561050957600080fd5b505afa15801561051d573d6000803e3d6000fd5b505050506040513d601f19601f820116820180604052508101906105419190611f16565b9050600061054f83836117cc565b60028601549091506000906105689060ff16600a612013565b905060006105838760030154836117e190919063ffffffff16565b9050600061059c826005546117ed90919063ffffffff16565b905060006105ab82600a6117e1565b905060006105b986836117cc565b6001600160a01b038e166000908152600360205260408120805492935084929091906105e6908490611ec7565b92505081905550600115157fb72fc2cbe62c4c789cbaf153fcb9e7fd9a6d42a7e8b21dcbcf8205a48a71f1ac8b60020160019054906101000a90046001600160a01b0316338f85428f60405161064196959493929190612022565b60405180910390a250505050505050505050505050565b6004546001600160a01b031633146106825760405162461bcd60e51b81526004016103019061205b565b60008080526020527fad3228b676f7d3cd4284a5443f17f1962b36e491b30a40b2405849e597ba5fb7547fad3228b676f7d3cd4284a5443f17f1962b36e491b30a40b2405849e597ba5fb59061010090046001600160a01b031661071a5760405162461bcd60e51b815260206004820152600f60248201526e63616e6e6f7420776974686472617760881b6044820152606401610301565b6000805260036020527f3617319a054d772f909f7c479a2cebe5066e836a939412e32403c99029b92eff5480156107e7576000836001600160a01b03168260405160006040518083038185875af1925050503d8060008114610798576040519150601f19603f3d011682016040523d82523d6000602084013e61079d565b606091505b50509050806107e55760405162461bcd60e51b81526020600482015260146024820152732330b4b632b2103a379039b2b7321022ba3432b960611b6044820152606401610301565b505b505050565b6004546001600160a01b031633146108165760405162461bcd60e51b81526004016103019061205b565b600555565b6004546001600160a01b031633146108455760405162461bcd60e51b81526004016103019061205b565b6001600160a01b03821661086b5760405162461bcd60e51b815260040161030190611e6f565b6000811161088b5760405162461bcd60e51b81526004016103019061208a565b6001600160a01b038316600090815260016020819052604082208054919290916108b6908490611ec7565b90915550506001600160a01b038316600090815260016020908152604080832054600283528184208185529092529091205460ff16156109085760405162461bcd60e51b815260040161030190611edf565b6001600160a01b03848116600090815260026020908152604080832085845290915290819020805460ff19166001179055516340c10f1960e01b8152848216600482015260248101849052908616906340c10f1990604401600060405180830381600087803b15801561097a57600080fd5b505af115801561098e573d6000803e3d6000fd5b50505050600115157fadbf676570b14adc5e745962ac26ae18d3854795058a2a52c0555457eb472ed88686868642876040516109cf96959493929190612022565b60405180910390a25050505050565b60008080526020527fad3228b676f7d3cd4284a5443f17f1962b36e491b30a40b2405849e597ba5fb56001600160a01b038216610a2d5760405162461bcd60e51b815260040161030190611e6f565b60003411610a7d5760405162461bcd60e51b815260206004820152601f60248201527f616d6f756e742073686f756c642062652067726561746572207468616e2030006044820152606401610301565b600281015461010090046001600160a01b0316610aca5760405162461bcd60e51b815260206004820152600b60248201526a666f72626964206c6f636b60a81b6044820152606401610301565b3360009081526001602081905260408220805491929091610aec908490611ec7565b909155505033600090815260016020908152604080832054600283528184208185529092529091205460ff1615610b355760405162461bcd60e51b815260040161030190611edf565b3360009081526002602090815260408083208484529091528120805460ff1916600117905560038301543491670de0b6b3a764000091610b769083906117e1565b90506000610b8f826005546117ed90919063ffffffff16565b90506000610b9e82600a6117e1565b90506000610bac86836117cc565b600080805260036020527f3617319a054d772f909f7c479a2cebe5066e836a939412e32403c99029b92eff80549293508492909190610bec908490611ec7565b909155505060028801546040516001917fb72fc2cbe62c4c789cbaf153fcb9e7fd9a6d42a7e8b21dcbcf8205a48a71f1ac91610c409161010090046001600160a01b03169033908e90879042908f90612022565b60405180910390a2505050505050505050565b6004546001600160a01b03163314610c7d5760405162461bcd60e51b81526004016103019061205b565b6001600160a01b038116610ce35760405162461bcd60e51b815260206004820152602760248201527f6272696467652f6e65772061646d696e2063616e6e6f74206265207a65726f206044820152666164647265737360c81b6064820152608401610301565b600480546001600160a01b038381166001600160a01b031983168117909355604080519190921680825260208201939093527f7e644d79422f17c01e4894b5f4f588d331ebfa28653d42ae832dc59e38c9798f910160405180910390a15050565b6004546001600160a01b03163314610d6e5760405162461bcd60e51b81526004016103019061205b565b6001600160a01b038216610d945760405162461bcd60e51b815260040161030190611e6f565b60008111610db45760405162461bcd60e51b81526004016103019061208a565b6001600160a01b03831660009081526001602081905260408220805491929091610ddf908490611ec7565b90915550506001600160a01b038316600090815260016020908152604080832054600283528184208185529092529091205460ff1615610e315760405162461bcd60e51b815260040161030190611edf565b6001600160a01b038481166000908152600260209081526040808320858452909152808220805460ff1916600117905551909185169084908381818185875af1925050503d8060008114610ea1576040519150601f19603f3d011682016040523d82523d6000602084013e610ea6565b606091505b5050905080610eee5760405162461bcd60e51b81526020600482015260146024820152732330b4b632b2103a379039b2b7321022ba3432b960611b6044820152606401610301565b600115157f0637c6badf7521351486ec407f9a218f17bb71aa3d552e2b9582ad0cd89906ad600087878742886040516109cf96959493929190612022565b6004546001600160a01b03163314610f565760405162461bcd60e51b81526004016103019061205b565b6001600160a01b0380831660009081526020819052604090206002810154909161010090910416610fbb5760405162461bcd60e51b815260206004820152600f60248201526e63616e6e6f7420776974686472617760881b6044820152606401610301565b6001600160a01b03831660009081526003602052604090205480156107e5576107e56001600160a01b03851684836117f9565b6004546001600160a01b031633146110185760405162461bcd60e51b81526004016103019061205b565b6001600160a01b03821660009081526020818152604090912082518051919261104692849290910190611a7e565b50602080830151805161105f9260018501920190611a7e565b50604082810151600283018054606086015160ff9093166001600160a81b0319909116176101006001600160a01b03841602179055608084015160038401558351915190917ffefe3a82e60e454e7f978fed46828a5870b6b533bb3cfc05d454b72e8b6c6e3c916110d49190879085906120d0565b60405180910390a150505050565b6004546001600160a01b0316331461110c5760405162461bcd60e51b81526004016103019061205b565b6001600160a01b0382166111325760405162461bcd60e51b815260040161030190611e6f565b600081116111525760405162461bcd60e51b81526004016103019061208a565b6001600160a01b0383166000908152600160208190526040822080549192909161117d908490611ec7565b90915550506001600160a01b038316600090815260016020908152604080832054600283528184208185529092529091205460ff16156111cf5760405162461bcd60e51b815260040161030190611edf565b6001600160a01b0380851660009081526002602090815260408083208584529091529020805460ff1916600117905561120b90861684846117f9565b600115157f0637c6badf7521351486ec407f9a218f17bb71aa3d552e2b9582ad0cd89906ad8686868642876040516109cf96959493929190612022565b60006020819052908152604090208054819061126390612103565b80601f016020809104026020016040519081016040528092919081815260200182805461128f90612103565b80156112dc5780601f106112b1576101008083540402835291602001916112dc565b820191906000526020600020905b8154815290600101906020018083116112bf57829003601f168201915b5050505050908060010180546112f190612103565b80601f016020809104026020016040519081016040528092919081815260200182805461131d90612103565b801561136a5780601f1061133f5761010080835404028352916020019161136a565b820191906000526020600020905b81548152906001019060200180831161134d57829003601f168201915b505050506002830154600390930154919260ff8116926101009091046001600160a01b0316915085565b6001600160a01b0380841660009081526020819052604090209083166113cc5760405162461bcd60e51b815260040161030190611e6f565b6000821161141c5760405162461bcd60e51b815260206004820152601760248201527f6272696467652f7a65726f20746f6b656e206275726e740000000000000000006044820152606401610301565b600281015461010090046001600160a01b03166114695760405162461bcd60e51b815260206004820152600b60248201526a3337b93134b210313ab93760a91b6044820152606401610301565b336000908152600160208190526040822080549192909161148b908490611ec7565b909155505033600090815260016020908152604080832054600283528184208185529092529091205460ff16156114d45760405162461bcd60e51b815260040161030190611edf565b336000818152600260209081526040808320858452909152808220805460ff19166001179055516370a0823160e01b81526004810192909252906001600160a01b038716906370a082319060240160206040518083038186803b15801561153a57600080fd5b505afa15801561154e573d6000803e3d6000fd5b505050506040513d601f19601f820116820180604052508101906115729190611f16565b90506115896001600160a01b038716333087611761565b6040516370a0823160e01b81523360048201526000906001600160a01b038816906370a082319060240160206040518083038186803b1580156115cb57600080fd5b505afa1580156115df573d6000803e3d6000fd5b505050506040513d601f19601f820116820180604052508101906116039190611f16565b9050600061161183836117cc565b600286015490915060009061162a9060ff16600a612013565b905060006116458760030154836117e190919063ffffffff16565b9050600061165e826005546117ed90919063ffffffff16565b9050600061166d82600a6117e1565b9050600061167b86836117cc565b6001600160a01b038e166000908152600360205260408120805492935084929091906116a8908490611ec7565b9091555050604051632770a7eb60e21b8152306004820152602481018290526001600160a01b038e1690639dc29fac90604401600060405180830381600087803b1580156116f557600080fd5b505af1158015611709573d6000803e3d6000fd5b50505050600115157fd98fbe2cea7a6dc702ed526efcb610ea19aa060ebea85e972859cc13a84b61298b60020160019054906101000a90046001600160a01b0316338f85428f60405161064196959493929190612022565b6040516001600160a01b03808516602483015283166044820152606481018290526107e59085906323b872dd60e01b906084015b60408051601f198184030181529190526020810180516001600160e01b03166001600160e01b031990931692909217909152611829565b60006117d8828461213e565b90505b92915050565b60006117d88284612155565b60006117d88284612177565b6040516001600160a01b0383166024820152604481018290526107e790849063a9059cbb60e01b90606401611795565b600061187e826040518060400160405280602081526020017f5361666545524332303a206c6f772d6c6576656c2063616c6c206661696c6564815250856001600160a01b03166118fb9092919063ffffffff16565b8051909150156107e7578080602001905181019061189c9190612196565b6107e75760405162461bcd60e51b815260206004820152602a60248201527f5361666545524332303a204552433230206f7065726174696f6e20646964206e6044820152691bdd081cdd58d8d9595960b21b6064820152608401610301565b606061190a8484600085611914565b90505b9392505050565b6060824710156119755760405162461bcd60e51b815260206004820152602660248201527f416464726573733a20696e73756666696369656e742062616c616e636520666f6044820152651c8818d85b1b60d21b6064820152608401610301565b6001600160a01b0385163b6119cc5760405162461bcd60e51b815260206004820152601d60248201527f416464726573733a2063616c6c20746f206e6f6e2d636f6e74726163740000006044820152606401610301565b600080866001600160a01b031685876040516119e891906121b8565b60006040518083038185875af1925050503d8060008114611a25576040519150601f19603f3d011682016040523d82523d6000602084013e611a2a565b606091505b5091509150611a3a828286611a45565b979650505050505050565b60608315611a5457508161190d565b825115611a645782518084602001fd5b8160405162461bcd60e51b815260040161030191906121d4565b828054611a8a90612103565b90600052602060002090601f016020900481019282611aac5760008555611af2565b82601f10611ac557805160ff1916838001178555611af2565b82800160010185558215611af2579182015b82811115611af2578251825591602001919060010190611ad7565b50611afe929150611b02565b5090565b5b80821115611afe5760008155600101611b03565b80356001600160a01b0381168114611b2e57600080fd5b919050565b600080600060608486031215611b4857600080fd5b611b5184611b17565b9250611b5f60208501611b17565b9150604084013590509250925092565b600060208284031215611b8157600080fd5b6117d882611b17565b600060208284031215611b9c57600080fd5b5035919050565b60008060008060808587031215611bb957600080fd5b611bc285611b17565b9350611bd060208601611b17565b9250611bde60408601611b17565b9396929550929360600135925050565b60008060408385031215611c0157600080fd5b611c0a83611b17565b9150611c1860208401611b17565b90509250929050565b634e487b7160e01b600052604160045260246000fd5b60405160a0810167ffffffffffffffff81118282101715611c5a57611c5a611c21565b60405290565b600082601f830112611c7157600080fd5b813567ffffffffffffffff80821115611c8c57611c8c611c21565b604051601f8301601f19908116603f01168101908282118183101715611cb457611cb4611c21565b81604052838152866020858801011115611ccd57600080fd5b836020870160208301376000602085830101528094505050505092915050565b60008060408385031215611d0057600080fd5b611d0983611b17565b9150602083013567ffffffffffffffff80821115611d2657600080fd5b9084019060a08287031215611d3a57600080fd5b611d42611c37565b823582811115611d5157600080fd5b611d5d88828601611c60565b825250602083013582811115611d7257600080fd5b611d7e88828601611c60565b6020830152506040830135915060ff82168214611d9a57600080fd5b816040820152611dac60608401611b17565b6060820152608083013560808201528093505050509250929050565b60005b83811015611de3578181015183820152602001611dcb565b838111156107e55750506000910152565b60008151808452611e0c816020860160208601611dc8565b601f01601f19169290920160200192915050565b60a081526000611e3360a0830188611df4565b8281036020840152611e458188611df4565b60ff96909616604084015250506001600160a01b0392909216606083015260809091015292915050565b60208082526022908201527f6272696467652f726563697069656e742069732061207a65726f206164647265604082015261737360f01b606082015260800190565b634e487b7160e01b600052601160045260246000fd5b60008219821115611eda57611eda611eb1565b500190565b6020808252601a908201527f7472616e7366657220616c72656164792070726f636573736564000000000000604082015260600190565b600060208284031215611f2857600080fd5b5051919050565b600181815b80851115611f6a578160001904821115611f5057611f50611eb1565b80851615611f5d57918102915b93841c9390800290611f34565b509250929050565b600082611f81575060016117db565b81611f8e575060006117db565b8160018114611fa45760028114611fae57611fca565b60019150506117db565b60ff841115611fbf57611fbf611eb1565b50506001821b6117db565b5060208310610133831016604e8410600b8410161715611fed575081810a6117db565b611ff78383611f2f565b806000190482111561200b5761200b611eb1565b029392505050565b60006117d860ff841683611f72565b6001600160a01b03968716815294861660208601529290941660408401526060830152608082019290925260a081019190915260c00190565b602080825260159082015274189c9a5919d94bdb9bdd0b585d5d1a1bdc9a5e9959605a1b604082015260600190565b60208082526026908201527f6272696467652f616d6f756e742073686f756c6420626520677265617465722060408201526507468616e20360d41b606082015260800190565b6060815260006120e36060830186611df4565b6001600160a01b0394851660208401529290931660409091015292915050565b600181811c9082168061211757607f821691505b6020821081141561213857634e487b7160e01b600052602260045260246000fd5b50919050565b60008282101561215057612150611eb1565b500390565b60008261217257634e487b7160e01b600052601260045260246000fd5b500490565b600081600019048311821515161561219157612191611eb1565b500290565b6000602082840312156121a857600080fd5b8151801515811461190d57600080fd5b600082516121ca818460208701611dc8565b9190910192915050565b6020815260006117d86020830184611df456fea26469706673582212202432846e8d019c8a93ee3b435daf7cf42bd655e550d7235bc97680acee014a5364736f6c63430008090033",
  "devdoc": {
    "kind": "dev",
    "methods": {
      "burn(address,address,uint256)": {
        "details": "burn tokens that were minted on this chain, unlocks on the other chain",
        "params": {
          "amount": "amount of tokens to burn",
          "recipient": "address that receives the tokens on the other chain",
          "tokenIn": "is the token contract address on this chain"
        }
      },
      "lockETH(address)": {
        "details": "lock ETH to be minted on the other chain",
        "params": {
          "recipient": "address that receives the tokens on the other chain"
        }
      },
      "lockToken(address,address,uint256)": {
        "details": "lock tokens to be minted on the other chain",
        "params": {
          "amount": "amount of tokens to lock",
          "recipient": "address that receives the tokens on the other chain",
          "tokenIn": "is the token contract address on this chain"
        }
      },
      "mint(address,address,address,uint256)": {
        "details": "mint tokens that were locked on the other chain",
        "params": {
          "amount": "amount of tokens to mint",
          "recipient": "address that receives the tokens on this chain",
          "sender": "address that locked the tokens on the other chain",
          "tokenOut": "is the token contract address on this chain"
        }
      },
      "unlockETH(address,address,uint256)": {
        "details": "unlock ETH after burning them on the other chain",
        "params": {
          "amount": "amount of tokens to unlock",
          "recipient": "address that receives the unlocked tokens on this chain",
          "sender": "is the account that burnt tokens on the other chain"
        }
      },
      "unlockToken(address,address,address,uint256)": {
        "details": "unlock tokens after burning them on the other chain",
        "params": {
          "amount": "amount of tokens to unlock",
          "recipient": "address that receives the unlocked tokens on this chain",
          "sender": "is the account that burnt tokens on the other chain",
          "tokenOut": "is the token contract address on this chain"
        }
      }
    },
    "version": 1
  },
  "userdoc": {
    "kind": "user",
    "methods": {},
    "version": 1
  },
  "storageLayout": {
    "storage": [
      {
        "astId": 8203,
        "contract": "contracts/bridge/base/Bridge.sol:Bridge",
        "label": "tokenInfo",
        "offset": 0,
        "slot": "0",
        "type": "t_mapping(t_address,t_struct(TokenInfo)8198_storage)"
      },
      {
        "astId": 8207,
        "contract": "contracts/bridge/base/Bridge.sol:Bridge",
        "label": "nonces",
        "offset": 0,
        "slot": "1",
        "type": "t_mapping(t_address,t_uint256)"
      },
      {
        "astId": 8213,
        "contract": "contracts/bridge/base/Bridge.sol:Bridge",
        "label": "processedNonces",
        "offset": 0,
        "slot": "2",
        "type": "t_mapping(t_address,t_mapping(t_uint256,t_bool))"
      },
      {
        "astId": 8217,
        "contract": "contracts/bridge/base/Bridge.sol:Bridge",
        "label": "taxCollected",
        "offset": 0,
        "slot": "3",
        "type": "t_mapping(t_address,t_uint256)"
      },
      {
        "astId": 8219,
        "contract": "contracts/bridge/base/Bridge.sol:Bridge",
        "label": "admin",
        "offset": 0,
        "slot": "4",
        "type": "t_address"
      },
      {
        "astId": 8222,
        "contract": "contracts/bridge/base/Bridge.sol:Bridge",
        "label": "fee",
        "offset": 0,
        "slot": "5",
        "type": "t_uint256"
      }
    ],
    "types": {
      "t_address": {
        "encoding": "inplace",
        "label": "address",
        "numberOfBytes": "20"
      },
      "t_bool": {
        "encoding": "inplace",
        "label": "bool",
        "numberOfBytes": "1"
      },
      "t_mapping(t_address,t_mapping(t_uint256,t_bool))": {
        "encoding": "mapping",
        "key": "t_address",
        "label": "mapping(address => mapping(uint256 => bool))",
        "numberOfBytes": "32",
        "value": "t_mapping(t_uint256,t_bool)"
      },
      "t_mapping(t_address,t_struct(TokenInfo)8198_storage)": {
        "encoding": "mapping",
        "key": "t_address",
        "label": "mapping(address => struct Bridge.TokenInfo)",
        "numberOfBytes": "32",
        "value": "t_struct(TokenInfo)8198_storage"
      },
      "t_mapping(t_address,t_uint256)": {
        "encoding": "mapping",
        "key": "t_address",
        "label": "mapping(address => uint256)",
        "numberOfBytes": "32",
        "value": "t_uint256"
      },
      "t_mapping(t_uint256,t_bool)": {
        "encoding": "mapping",
        "key": "t_uint256",
        "label": "mapping(uint256 => bool)",
        "numberOfBytes": "32",
        "value": "t_bool"
      },
      "t_string_storage": {
        "encoding": "bytes",
        "label": "string",
        "numberOfBytes": "32"
      },
      "t_struct(TokenInfo)8198_storage": {
        "encoding": "inplace",
        "label": "struct Bridge.TokenInfo",
        "members": [
          {
            "astId": 8189,
            "contract": "contracts/bridge/base/Bridge.sol:Bridge",
            "label": "name",
            "offset": 0,
            "slot": "0",
            "type": "t_string_storage"
          },
          {
            "astId": 8191,
            "contract": "contracts/bridge/base/Bridge.sol:Bridge",
            "label": "symbol",
            "offset": 0,
            "slot": "1",
            "type": "t_string_storage"
          },
          {
            "astId": 8193,
            "contract": "contracts/bridge/base/Bridge.sol:Bridge",
            "label": "decimals",
            "offset": 0,
            "slot": "2",
            "type": "t_uint8"
          },
          {
            "astId": 8195,
            "contract": "contracts/bridge/base/Bridge.sol:Bridge",
            "label": "tokenAddr",
            "offset": 1,
            "slot": "2",
            "type": "t_address"
          },
          {
            "astId": 8197,
            "contract": "contracts/bridge/base/Bridge.sol:Bridge",
            "label": "price",
            "offset": 0,
            "slot": "3",
            "type": "t_uint256"
          }
        ],
        "numberOfBytes": "128"
      },
      "t_uint256": {
        "encoding": "inplace",
        "label": "uint256",
        "numberOfBytes": "32"
      },
      "t_uint8": {
        "encoding": "inplace",
        "label": "uint8",
        "numberOfBytes": "1"
      }
    }
  }
}